{
  "contractName": "BadAuction",
  "abi": [
    {
      "constant": true,
      "inputs": [],
      "name": "getHighestBidder",
      "outputs": [
        {
          "name": "",
          "type": "address"
        }
      ],
      "payable": false,
      "stateMutability": "view",
      "type": "function"
    },
    {
      "constant": false,
      "inputs": [],
      "name": "reduceBid",
      "outputs": [],
      "payable": false,
      "stateMutability": "nonpayable",
      "type": "function"
    },
    {
      "constant": false,
      "inputs": [],
      "name": "bid",
      "outputs": [
        {
          "name": "",
          "type": "bool"
        }
      ],
      "payable": true,
      "stateMutability": "payable",
      "type": "function"
    },
    {
      "constant": true,
      "inputs": [],
      "name": "getHighestBid",
      "outputs": [
        {
          "name": "",
          "type": "uint256"
        }
      ],
      "payable": false,
      "stateMutability": "view",
      "type": "function"
    },
    {
      "payable": true,
      "stateMutability": "payable",
      "type": "fallback"
    },
    {
      "anonymous": false,
      "inputs": [
        {
          "indexed": false,
          "name": "amount",
          "type": "uint256"
        },
        {
          "indexed": false,
          "name": "from",
          "type": "address"
        },
        {
          "indexed": false,
          "name": "to",
          "type": "address"
        }
      ],
      "name": "Transfer",
      "type": "event"
    },
    {
      "anonymous": false,
      "inputs": [
        {
          "indexed": false,
          "name": "msg",
          "type": "string"
        },
        {
          "indexed": false,
          "name": "lastBidder",
          "type": "address"
        },
        {
          "indexed": false,
          "name": "highestBidder",
          "type": "address"
        },
        {
          "indexed": false,
          "name": "amount",
          "type": "uint256"
        },
        {
          "indexed": false,
          "name": "bidderNewBalance",
          "type": "uint256"
        }
      ],
      "name": "Bid",
      "type": "event"
    },
    {
      "anonymous": false,
      "inputs": [
        {
          "indexed": false,
          "name": "msg",
          "type": "string"
        }
      ],
      "name": "Log",
      "type": "event"
    }
  ],
  "bytecode": "0x6060604052341561000f57600080fd5b6106768061001e6000396000f300606060405260043610610061576000357c0100000000000000000000000000000000000000000000000000000000900463ffffffff1680623495a4146100a3578063057ae235146100f85780631998aeef1461010d5780634979440a1461012f575b3373ffffffffffffffffffffffffffffffffffffffff166108fc349081150290604051600060405180830381858888f1935050505015156100a157600080fd5b005b34156100ae57600080fd5b6100b6610158565b604051808273ffffffffffffffffffffffffffffffffffffffff1673ffffffffffffffffffffffffffffffffffffffff16815260200191505060405180910390f35b341561010357600080fd5b61010b610181565b005b610115610206565b604051808215151515815260200191505060405180910390f35b341561013a57600080fd5b610142610640565b6040518082815260200191505060405180910390f35b60008060009054906101000a900473ffffffffffffffffffffffffffffffffffffffff16905090565b60006001541015156101ff5760018054036001819055506000809054906101000a900473ffffffffffffffffffffffffffffffffffffffff1673ffffffffffffffffffffffffffffffffffffffff166108fc60019081150290604051600060405180830381858888f1935050505015156101fa57600080fd5b610204565b600080fd5b565b60006001543411156104525760006001541415156102ea576000809054906101000a900473ffffffffffffffffffffffffffffffffffffffff1673ffffffffffffffffffffffffffffffffffffffff166108fc6001549081150290604051600060405180830381858888f1935050505015156102e9577fcf34ef537ac33ee1ac626ca1587a0a7e8e51561e5514f8cb36afa1c5102b3bab60405180806020018281038252601c8152602001807f726576657274696e6720696e206869676865737442696420213d20300000000081525060200191505060405180910390a1600080fd5b5b34600181905550336000806101000a81548173ffffffffffffffffffffffffffffffffffffffff021916908373ffffffffffffffffffffffffffffffffffffffff1602179055507f8d666517b9a387b366fb33041ec642528204345242dfa0ab7e0732e98468fa4c336000809054906101000a900473ffffffffffffffffffffffffffffffffffffffff16343373ffffffffffffffffffffffffffffffffffffffff163160405180806020018673ffffffffffffffffffffffffffffffffffffffff1673ffffffffffffffffffffffffffffffffffffffff1681526020018573ffffffffffffffffffffffffffffffffffffffff1673ffffffffffffffffffffffffffffffffffffffff168152602001848152602001838152602001828103825260128152602001807f4e657720486967686573742042696464657200000000000000000000000000008152506020019550505050505060405180910390a16001905061063d565b3373ffffffffffffffffffffffffffffffffffffffff166108fc349081150290604051600060405180830381858888f193505050501515610520577fcf34ef537ac33ee1ac626ca1587a0a7e8e51561e5514f8cb36afa1c5102b3bab6040518080602001828103825260238152602001807f726576657274696e6720696e2068696768657374426964203c206d73672e766181526020017f6c7565000000000000000000000000000000000000000000000000000000000081525060400191505060405180910390a1600080fd5b7f8d666517b9a387b366fb33041ec642528204345242dfa0ab7e0732e98468fa4c336000809054906101000a900473ffffffffffffffffffffffffffffffffffffffff16343373ffffffffffffffffffffffffffffffffffffffff163160405180806020018673ffffffffffffffffffffffffffffffffffffffff1673ffffffffffffffffffffffffffffffffffffffff1681526020018573ffffffffffffffffffffffffffffffffffffffff1673ffffffffffffffffffffffffffffffffffffffff1681526020018481526020018381526020018281038252600f8152602001807f4269642077617320746f6f206c6f7700000000000000000000000000000000008152506020019550505050505060405180910390a1600090505b90565b60006001549050905600a165627a7a7230582004f8b404732be1d61be51c7d45241128bea99becc7cdc8977c7891c8e76d3adf0029",
  "source": "pragma solidity 0.4.19;\n\nimport \"./AuctionInterface.sol\";\n\n/** @title BadAuction */\ncontract BadAuction is AuctionInterface {\n\n\tevent Transfer(uint256 amount, address from, address to);\n\tevent Bid(string msg, address lastBidder, address highestBidder, uint256 amount, uint256 bidderNewBalance);\n\n\tevent Log(string msg);\n\t/* Bid function, vulnerable to reentrency attack.\n\t * Must return true on successful send and/or bid,\n\t * bidder reassignment\n\t * Must return false on failure and send people\n\t * their funds back\n\t */\n\tfunction bid() payable external returns (bool) {\n\t\t// YOUR CODE HERE\n\t\tif (msg.value > highestBid) {\n\t\t\tif (highestBid != 0) {\n\t\t\t  if(!highestBidder.send(highestBid)) {\n\t\t\t\t\tLog('reverting in highestBid != 0');\n\t\t\t\t\trevert();\n\t\t\t\t}\n\t\t\t}\n\n\t\t\thighestBid = msg.value;\n\t\t\thighestBidder = msg.sender;\n\n\t\t\tBid('New Highest Bidder', msg.sender, highestBidder, msg.value, msg.sender.balance);\n\t\t\treturn true;\n\t\t} else {\n\t\t\tif (!msg.sender.send(msg.value)) {\n\t\t\t\tLog('reverting in highestBid < msg.value');\n\t\t\t\trevert();\n\t\t\t}\n\n\t\t\tBid('Bid was too low', msg.sender, highestBidder, msg.value, msg.sender.balance);\n\t\t\treturn false;\n\t\t}\n\t}\n\n\t/* \tReduce bid function. Vulnerable to attack.\n\t\tAllows current highest bidder to reduce\n\t\ttheir bid by 1. Do NOT make changes here.\n\t\tInstead notice the vulnerabilities, and\n\t\timplement the function properly in GoodAuction.sol  */\n\n\tfunction reduceBid() external {\n\t    if (highestBid >= 0) {\n\t        highestBid = highestBid - 1;\n\t        require(highestBidder.send(1));\n\t    } else {\n\t    \trevert();\n\t    }\n\t}\n\n\n\t/* \tRemember this fallback function\n\t\tgets invoked if somebody calls a\n\t\tfunction that does not exist in this\n\t\tcontract. But we're good people so we don't\n\t\twant to profit on people's mistakes.\n\t\tHow do we send people their money back?  */\n\n\tfunction () payable {\n\t\t// YOUR CODE HERE\n\t\tmsg.sender.transfer(msg.value);\n\t}\n\n}\n",
  "sourcePath": "/Users/yj/Developer/blockchain_decal/sp18-lab03/contracts/BadAuction.sol",
  "compiler": {
    "name": "solc",
    "version": "0.4.19+commit.c4cbbb05.Emscripten.clang"
  },
  "schemaVersion": "1.0.1",
  "updatedAt": "2018-03-03T08:11:49.511Z"
}