{
  "contractName": "GoodAuction",
  "abi": [
    {
      "constant": true,
      "inputs": [],
      "name": "getHighestBidder",
      "outputs": [
        {
          "name": "",
          "type": "address"
        }
      ],
      "payable": false,
      "stateMutability": "view",
      "type": "function"
    },
    {
      "constant": false,
      "inputs": [],
      "name": "reduceBid",
      "outputs": [],
      "payable": false,
      "stateMutability": "nonpayable",
      "type": "function"
    },
    {
      "constant": false,
      "inputs": [],
      "name": "withdrawRefund",
      "outputs": [
        {
          "name": "",
          "type": "bool"
        }
      ],
      "payable": false,
      "stateMutability": "nonpayable",
      "type": "function"
    },
    {
      "constant": false,
      "inputs": [],
      "name": "bid",
      "outputs": [
        {
          "name": "",
          "type": "bool"
        }
      ],
      "payable": true,
      "stateMutability": "payable",
      "type": "function"
    },
    {
      "constant": true,
      "inputs": [],
      "name": "getHighestBid",
      "outputs": [
        {
          "name": "",
          "type": "uint256"
        }
      ],
      "payable": false,
      "stateMutability": "view",
      "type": "function"
    },
    {
      "constant": true,
      "inputs": [],
      "name": "getMyBalance",
      "outputs": [
        {
          "name": "",
          "type": "uint256"
        }
      ],
      "payable": false,
      "stateMutability": "view",
      "type": "function"
    },
    {
      "payable": true,
      "stateMutability": "payable",
      "type": "fallback"
    },
    {
      "anonymous": false,
      "inputs": [
        {
          "indexed": false,
          "name": "amount",
          "type": "uint256"
        },
        {
          "indexed": false,
          "name": "from",
          "type": "address"
        },
        {
          "indexed": false,
          "name": "to",
          "type": "address"
        }
      ],
      "name": "Transfer",
      "type": "event"
    },
    {
      "anonymous": false,
      "inputs": [
        {
          "indexed": false,
          "name": "msg",
          "type": "string"
        },
        {
          "indexed": false,
          "name": "lastBidder",
          "type": "address"
        },
        {
          "indexed": false,
          "name": "amount",
          "type": "uint256"
        },
        {
          "indexed": false,
          "name": "prevHighestBid",
          "type": "uint256"
        },
        {
          "indexed": false,
          "name": "prevHighestBidder",
          "type": "address"
        }
      ],
      "name": "Bid",
      "type": "event"
    },
    {
      "anonymous": false,
      "inputs": [
        {
          "indexed": false,
          "name": "highestBidder",
          "type": "address"
        },
        {
          "indexed": false,
          "name": "calling",
          "type": "address"
        }
      ],
      "name": "Log",
      "type": "event"
    }
  ],
  "bytecode": "0x6060604052341561000f57600080fd5b6108268061001e6000396000f300606060405260043610610077576000357c0100000000000000000000000000000000000000000000000000000000900463ffffffff1680623495a4146100c6578063057ae2351461011b578063110f8874146101305780631998aeef1461015d5780634979440a1461017f5780634c738909146101a8575b34600260003373ffffffffffffffffffffffffffffffffffffffff1673ffffffffffffffffffffffffffffffffffffffff16815260200190815260200160002060008282540192505081905550005b34156100d157600080fd5b6100d96101d1565b604051808273ffffffffffffffffffffffffffffffffffffffff1673ffffffffffffffffffffffffffffffffffffffff16815260200191505060405180910390f35b341561012657600080fd5b61012e6101fa565b005b341561013b57600080fd5b610143610395565b604051808215151515815260200191505060405180910390f35b61016561039a565b604051808215151515815260200191505060405180910390f35b341561018a57600080fd5b610192610790565b6040518082815260200191505060405180910390f35b34156101b357600080fd5b6101bb61079a565b6040518082815260200191505060405180910390f35b60008060009054906101000a900473ffffffffffffffffffffffffffffffffffffffff16905090565b7f0313a149b93753a9a430e8855b0a864f3144ab237f5cfb5208a43004b13cfd2a6000809054906101000a900473ffffffffffffffffffffffffffffffffffffffff1633604051808373ffffffffffffffffffffffffffffffffffffffff1673ffffffffffffffffffffffffffffffffffffffff1681526020018273ffffffffffffffffffffffffffffffffffffffff1673ffffffffffffffffffffffffffffffffffffffff1681526020019250505060405180910390a1600060015411801561031057506000809054906101000a900473ffffffffffffffffffffffffffffffffffffffff1673ffffffffffffffffffffffffffffffffffffffff163373ffffffffffffffffffffffffffffffffffffffff16145b156103935761032a600180546107e190919063ffffffff16565b6001819055506000809054906101000a900473ffffffffffffffffffffffffffffffffffffffff1673ffffffffffffffffffffffffffffffffffffffff166108fc60019081150290604051600060405180830381858888f19350505050151561039257600080fd5b5b565b600090565b60006001543411156106385760006001541415156104e557600154600260008060009054906101000a900473ffffffffffffffffffffffffffffffffffffffff1673ffffffffffffffffffffffffffffffffffffffff1673ffffffffffffffffffffffffffffffffffffffff168152602001908152602001600020600082825401925050819055507f0a429aba3d89849a2db0153e4534d95c46a1d83c8109d73893f55ebc44010ff4600154306000809054906101000a900473ffffffffffffffffffffffffffffffffffffffff16604051808481526020018373ffffffffffffffffffffffffffffffffffffffff1673ffffffffffffffffffffffffffffffffffffffff1681526020018273ffffffffffffffffffffffffffffffffffffffff1673ffffffffffffffffffffffffffffffffffffffff168152602001935050505060405180910390a15b7febc24efde0a3a26efbd64b0fec60d4324ac39d8fadead5f7e9d08f89b2433ac033346001546000809054906101000a900473ffffffffffffffffffffffffffffffffffffffff1660405180806020018673ffffffffffffffffffffffffffffffffffffffff1673ffffffffffffffffffffffffffffffffffffffff1681526020018581526020018481526020018373ffffffffffffffffffffffffffffffffffffffff1673ffffffffffffffffffffffffffffffffffffffff168152602001828103825260128152602001807f4e657720486967686573742042696464657200000000000000000000000000008152506020019550505050505060405180910390a134600181905550336000806101000a81548173ffffffffffffffffffffffffffffffffffffffff021916908373ffffffffffffffffffffffffffffffffffffffff1602179055506001905061078d565b34600260003373ffffffffffffffffffffffffffffffffffffffff1673ffffffffffffffffffffffffffffffffffffffff168152602001908152602001600020600082825401925050819055507febc24efde0a3a26efbd64b0fec60d4324ac39d8fadead5f7e9d08f89b2433ac033346001546000809054906101000a900473ffffffffffffffffffffffffffffffffffffffff1660405180806020018673ffffffffffffffffffffffffffffffffffffffff1673ffffffffffffffffffffffffffffffffffffffff1681526020018581526020018481526020018373ffffffffffffffffffffffffffffffffffffffff1673ffffffffffffffffffffffffffffffffffffffff1681526020018281038252600f8152602001807f4269642077617320746f6f206c6f7700000000000000000000000000000000008152506020019550505050505060405180910390a1600090505b90565b6000600154905090565b6000600260003373ffffffffffffffffffffffffffffffffffffffff1673ffffffffffffffffffffffffffffffffffffffff16815260200190815260200160002054905090565b60008282111515156107ef57fe5b8183039050929150505600a165627a7a7230582087fc854bcc2d4148a0dec3e4b623b118bf5208ae6f66d4d3ac2147cb2bb5f4530029",
  "source": "pragma solidity 0.4.19;\n\nimport \"./AuctionInterface.sol\";\nimport \"./SafeMath.sol\";\n\n/** @title GoodAuction */\ncontract GoodAuction is AuctionInterface {\n\tusing SafeMath for uint256;\n\n\tevent Transfer(uint256 amount, address from, address to);\n\tevent Bid(string msg, address lastBidder, uint256 amount, uint256 prevHighestBid, address prevHighestBidder);\n\tevent Log(address highestBidder, address calling);\n\n\t/* New data structure, keeps track of refunds owed */\n\tmapping(address => uint) refunds;\n\n\t/* \tBid function, now shifted to pull paradigm\n\t\tMust return true on successful send and/or bid, bidder\n\t\treassignment. Must return false on failure and\n\t\tallow people to retrieve their funds  */\n\tfunction bid() payable external returns(bool) {\n\t\tif (msg.value > highestBid) {\n\t\t\tif (highestBid != 0) {\n\t\t\t  /* highestBidder.transfer(highestBid); */\n\t\t\t\trefunds[highestBidder] += highestBid;\n\t\t\t\tTransfer(highestBid, this, highestBidder);\n\t\t\t}\n\n\t\t\tBid('New Highest Bidder', msg.sender, msg.value, highestBid, highestBidder);\n\t\t\thighestBid = msg.value;\n\t\t\thighestBidder = msg.sender;\n\n\t\t\treturn true;\n\t\t} else {\n\t\t\t/* require(msg.sender.send(msg.value)); */\n\t\t\trefunds[msg.sender] += msg.value;\n\n\t\t\tBid('Bid was too low', msg.sender, msg.value, highestBid, highestBidder);\n\t\t\treturn false;\n\t\t}\n\t}\n\n\t/*  Implement withdraw function to complete new\n\t    pull paradigm. Returns true on successful\n\t    return of owed funds and false on failure\n\t    or no funds owed.  */\n\tfunction withdrawRefund() external returns(bool) {\n\t\t// YOUR CODE HERE\n\t}\n\n\t/*  Allow users to check the amount they are owed\n\t\tbefore calling withdrawRefund(). Function returns\n\t\tamount owed.  */\n\tfunction getMyBalance() constant external returns(uint) {\n\t\treturn refunds[msg.sender];\n\t}\n\n\n\t/* \tConsider implementing this modifier\n\t\tand applying it to the reduceBid function\n\t\tyou fill in below. */\n\tmodifier canReduce {\n\t\t/* require(msg.sender == highestBidder); */\n\t\t_;\n\t}\n\n\n\t/*  Rewrite reduceBid from BadAuction to fix\n\t\tthe security vulnerabilities. Should allow the\n\t\tcurrent highest bidder only to reduce their bid amount */\n\tfunction reduceBid() external {\n\t\tLog(highestBidder, msg.sender);\n\n\t\tif (highestBid > 0 && msg.sender == highestBidder) {\n\t\t\t\thighestBid = highestBid.sub(1);\n\t\t\t\thighestBidder.transfer(1);\n\t\t}\n\t}\n\n\n\t/* \tRemember this fallback function\n\t\tgets invoked if somebody calls a\n\t\tfunction that does not exist in this\n\t\tcontract. But we're good people so we don't\n\t\twant to profit on people's mistakes.\n\t\tHow do we send people their money back?  */\n\n\tfunction () payable {\n\t\trefunds[msg.sender] += msg.value;\n\t}\n\n}\n",
  "sourcePath": "/Users/yj/Developer/blockchain_decal/sp18-lab03/contracts/GoodAuction.sol",
  "compiler": {
    "name": "solc",
    "version": "0.4.19+commit.c4cbbb05.Emscripten.clang"
  },
  "schemaVersion": "1.0.1",
  "updatedAt": "2018-03-03T08:11:49.512Z"
}